{
  "_format": "hh-sol-artifact-1",
  "contractName": "AMM",
  "sourceName": "contracts/AMM.sol",
  "abi": [
    {
      "inputs": [
        {
          "internalType": "address",
          "name": "_olameTokenAddress",
          "type": "address"
        }
      ],
      "stateMutability": "nonpayable",
      "type": "constructor"
    },
    {
      "anonymous": false,
      "inputs": [
        {
          "indexed": true,
          "internalType": "address",
          "name": "owner",
          "type": "address"
        },
        {
          "indexed": true,
          "internalType": "address",
          "name": "spender",
          "type": "address"
        },
        {
          "indexed": false,
          "internalType": "uint256",
          "name": "value",
          "type": "uint256"
        }
      ],
      "name": "Approval",
      "type": "event"
    },
    {
      "anonymous": false,
      "inputs": [
        {
          "indexed": true,
          "internalType": "address",
          "name": "provider",
          "type": "address"
        },
        {
          "indexed": false,
          "internalType": "uint256",
          "name": "amount",
          "type": "uint256"
        },
        {
          "indexed": false,
          "internalType": "uint256",
          "name": "liquidity",
          "type": "uint256"
        }
      ],
      "name": "LiquidityAdded",
      "type": "event"
    },
    {
      "anonymous": false,
      "inputs": [
        {
          "indexed": true,
          "internalType": "address",
          "name": "provider",
          "type": "address"
        },
        {
          "indexed": false,
          "internalType": "uint256",
          "name": "amount",
          "type": "uint256"
        },
        {
          "indexed": false,
          "internalType": "uint256",
          "name": "celoAmount",
          "type": "uint256"
        },
        {
          "indexed": false,
          "internalType": "uint256",
          "name": "olameTokenAmount",
          "type": "uint256"
        }
      ],
      "name": "LiquidityRemoved",
      "type": "event"
    },
    {
      "anonymous": false,
      "inputs": [
        {
          "indexed": true,
          "internalType": "address",
          "name": "buyer",
          "type": "address"
        },
        {
          "indexed": false,
          "internalType": "uint256",
          "name": "celoAmount",
          "type": "uint256"
        },
        {
          "indexed": false,
          "internalType": "uint256",
          "name": "tokensBought",
          "type": "uint256"
        }
      ],
      "name": "TokensPurchased",
      "type": "event"
    },
    {
      "anonymous": false,
      "inputs": [
        {
          "indexed": true,
          "internalType": "address",
          "name": "seller",
          "type": "address"
        },
        {
          "indexed": false,
          "internalType": "uint256",
          "name": "tokensSold",
          "type": "uint256"
        },
        {
          "indexed": false,
          "internalType": "uint256",
          "name": "celoAmount",
          "type": "uint256"
        }
      ],
      "name": "TokensSold",
      "type": "event"
    },
    {
      "anonymous": false,
      "inputs": [
        {
          "indexed": true,
          "internalType": "address",
          "name": "from",
          "type": "address"
        },
        {
          "indexed": true,
          "internalType": "address",
          "name": "to",
          "type": "address"
        },
        {
          "indexed": false,
          "internalType": "uint256",
          "name": "value",
          "type": "uint256"
        }
      ],
      "name": "Transfer",
      "type": "event"
    },
    {
      "inputs": [
        {
          "internalType": "uint256",
          "name": "_amount",
          "type": "uint256"
        }
      ],
      "name": "addLiquidity",
      "outputs": [
        {
          "internalType": "uint256",
          "name": "",
          "type": "uint256"
        }
      ],
      "stateMutability": "payable",
      "type": "function"
    },
    {
      "inputs": [
        {
          "internalType": "address",
          "name": "owner",
          "type": "address"
        },
        {
          "internalType": "address",
          "name": "spender",
          "type": "address"
        }
      ],
      "name": "allowance",
      "outputs": [
        {
          "internalType": "uint256",
          "name": "",
          "type": "uint256"
        }
      ],
      "stateMutability": "view",
      "type": "function"
    },
    {
      "inputs": [
        {
          "internalType": "address",
          "name": "spender",
          "type": "address"
        },
        {
          "internalType": "uint256",
          "name": "amount",
          "type": "uint256"
        }
      ],
      "name": "approve",
      "outputs": [
        {
          "internalType": "bool",
          "name": "",
          "type": "bool"
        }
      ],
      "stateMutability": "nonpayable",
      "type": "function"
    },
    {
      "inputs": [
        {
          "internalType": "address",
          "name": "account",
          "type": "address"
        }
      ],
      "name": "balanceOf",
      "outputs": [
        {
          "internalType": "uint256",
          "name": "",
          "type": "uint256"
        }
      ],
      "stateMutability": "view",
      "type": "function"
    },
    {
      "inputs": [
        {
          "internalType": "uint256",
          "name": "_minTokens",
          "type": "uint256"
        }
      ],
      "name": "celoToOlameToken",
      "outputs": [],
      "stateMutability": "payable",
      "type": "function"
    },
    {
      "inputs": [],
      "name": "decimals",
      "outputs": [
        {
          "internalType": "uint8",
          "name": "",
          "type": "uint8"
        }
      ],
      "stateMutability": "view",
      "type": "function"
    },
    {
      "inputs": [
        {
          "internalType": "address",
          "name": "spender",
          "type": "address"
        },
        {
          "internalType": "uint256",
          "name": "subtractedValue",
          "type": "uint256"
        }
      ],
      "name": "decreaseAllowance",
      "outputs": [
        {
          "internalType": "bool",
          "name": "",
          "type": "bool"
        }
      ],
      "stateMutability": "nonpayable",
      "type": "function"
    },
    {
      "inputs": [
        {
          "internalType": "uint256",
          "name": "inputAmount",
          "type": "uint256"
        },
        {
          "internalType": "uint256",
          "name": "inputReserve",
          "type": "uint256"
        },
        {
          "internalType": "uint256",
          "name": "outputReserve",
          "type": "uint256"
        }
      ],
      "name": "getAmountOfTokens",
      "outputs": [
        {
          "internalType": "uint256",
          "name": "",
          "type": "uint256"
        }
      ],
      "stateMutability": "pure",
      "type": "function"
    },
    {
      "inputs": [],
      "name": "getReserve",
      "outputs": [
        {
          "internalType": "uint256",
          "name": "",
          "type": "uint256"
        }
      ],
      "stateMutability": "view",
      "type": "function"
    },
    {
      "inputs": [
        {
          "internalType": "address",
          "name": "spender",
          "type": "address"
        },
        {
          "internalType": "uint256",
          "name": "addedValue",
          "type": "uint256"
        }
      ],
      "name": "increaseAllowance",
      "outputs": [
        {
          "internalType": "bool",
          "name": "",
          "type": "bool"
        }
      ],
      "stateMutability": "nonpayable",
      "type": "function"
    },
    {
      "inputs": [],
      "name": "name",
      "outputs": [
        {
          "internalType": "string",
          "name": "",
          "type": "string"
        }
      ],
      "stateMutability": "view",
      "type": "function"
    },
    {
      "inputs": [],
      "name": "olameTokenAddress",
      "outputs": [
        {
          "internalType": "address",
          "name": "",
          "type": "address"
        }
      ],
      "stateMutability": "view",
      "type": "function"
    },
    {
      "inputs": [
        {
          "internalType": "uint256",
          "name": "_tokensSold",
          "type": "uint256"
        },
        {
          "internalType": "uint256",
          "name": "_minCelo",
          "type": "uint256"
        }
      ],
      "name": "olameTokenToCelo",
      "outputs": [],
      "stateMutability": "nonpayable",
      "type": "function"
    },
    {
      "inputs": [
        {
          "internalType": "uint256",
          "name": "_amount",
          "type": "uint256"
        }
      ],
      "name": "removeLiquidity",
      "outputs": [
        {
          "internalType": "uint256",
          "name": "",
          "type": "uint256"
        },
        {
          "internalType": "uint256",
          "name": "",
          "type": "uint256"
        }
      ],
      "stateMutability": "nonpayable",
      "type": "function"
    },
    {
      "inputs": [],
      "name": "symbol",
      "outputs": [
        {
          "internalType": "string",
          "name": "",
          "type": "string"
        }
      ],
      "stateMutability": "view",
      "type": "function"
    },
    {
      "inputs": [],
      "name": "totalSupply",
      "outputs": [
        {
          "internalType": "uint256",
          "name": "",
          "type": "uint256"
        }
      ],
      "stateMutability": "view",
      "type": "function"
    },
    {
      "inputs": [
        {
          "internalType": "address",
          "name": "to",
          "type": "address"
        },
        {
          "internalType": "uint256",
          "name": "amount",
          "type": "uint256"
        }
      ],
      "name": "transfer",
      "outputs": [
        {
          "internalType": "bool",
          "name": "",
          "type": "bool"
        }
      ],
      "stateMutability": "nonpayable",
      "type": "function"
    },
    {
      "inputs": [
        {
          "internalType": "address",
          "name": "from",
          "type": "address"
        },
        {
          "internalType": "address",
          "name": "to",
          "type": "address"
        },
        {
          "internalType": "uint256",
          "name": "amount",
          "type": "uint256"
        }
      ],
      "name": "transferFrom",
      "outputs": [
        {
          "internalType": "bool",
          "name": "",
          "type": "bool"
        }
      ],
      "stateMutability": "nonpayable",
      "type": "function"
    }
  ],
  "bytecode": "0x60806040523480156200001157600080fd5b506040516200312c3803806200312c8339818101604052810190620000379190620001ed565b6040518060400160405280600e81526020017f4f6c616d65204c5020546f6b656e0000000000000000000000000000000000008152506040518060400160405280600681526020017f4943422d4c5000000000000000000000000000000000000000000000000000008152508160039081620000b4919062000499565b508060049081620000c6919062000499565b505050600073ffffffffffffffffffffffffffffffffffffffff168173ffffffffffffffffffffffffffffffffffffffff16036200013b576040517f08c379a0000000000000000000000000000000000000000000000000000000008152600401620001329062000607565b60405180910390fd5b80600560006101000a81548173ffffffffffffffffffffffffffffffffffffffff021916908373ffffffffffffffffffffffffffffffffffffffff1602179055505062000629565b600080fd5b600073ffffffffffffffffffffffffffffffffffffffff82169050919050565b6000620001b58262000188565b9050919050565b620001c781620001a8565b8114620001d357600080fd5b50565b600081519050620001e781620001bc565b92915050565b60006020828403121562000206576200020562000183565b5b60006200021684828501620001d6565b91505092915050565b600081519050919050565b7f4e487b7100000000000000000000000000000000000000000000000000000000600052604160045260246000fd5b7f4e487b7100000000000000000000000000000000000000000000000000000000600052602260045260246000fd5b60006002820490506001821680620002a157607f821691505b602082108103620002b757620002b662000259565b5b50919050565b60008190508160005260206000209050919050565b60006020601f8301049050919050565b600082821b905092915050565b600060088302620003217fffffffffffffffffffffffffffffffffffffffffffffffffffffffffffffffff82620002e2565b6200032d8683620002e2565b95508019841693508086168417925050509392505050565b6000819050919050565b6000819050919050565b60006200037a620003746200036e8462000345565b6200034f565b62000345565b9050919050565b6000819050919050565b620003968362000359565b620003ae620003a58262000381565b848454620002ef565b825550505050565b600090565b620003c5620003b6565b620003d28184846200038b565b505050565b5b81811015620003fa57620003ee600082620003bb565b600181019050620003d8565b5050565b601f82111562000449576200041381620002bd565b6200041e84620002d2565b810160208510156200042e578190505b620004466200043d85620002d2565b830182620003d7565b50505b505050565b600082821c905092915050565b60006200046e600019846008026200044e565b1980831691505092915050565b60006200048983836200045b565b9150826002028217905092915050565b620004a4826200021f565b67ffffffffffffffff811115620004c057620004bf6200022a565b5b620004cc825462000288565b620004d9828285620003fe565b600060209050601f831160018114620005115760008415620004fc578287015190505b6200050885826200047b565b86555062000578565b601f1984166200052186620002bd565b60005b828110156200054b5784890151825560018201915060208501945060208101905062000524565b868310156200056b578489015162000567601f8916826200045b565b8355505b6001600288020188555050505b505050505050565b600082825260208201905092915050565b7f546f6b656e2061646472657373207061737365642069732061206e756c6c206160008201527f6464726573730000000000000000000000000000000000000000000000000000602082015250565b6000620005ef60268362000580565b9150620005fc8262000591565b604082019050919050565b600060208201905081810360008301526200062281620005e0565b9050919050565b612af380620006396000396000f3fe6080604052600436106101095760003560e01c80637386479e116100955780639c8f9f23116100645780639c8f9f231461038d578063a457c2d7146103cb578063a9059cbb14610408578063cb72ca5614610445578063dd62ed3e1461046e57610109565b80637386479e146102de5780637efe8f0e1461031b57806395d89b41146103375780639a24b37e1461036257610109565b8063313ce567116100dc578063313ce567146101de578063395093511461020957806351c6590a1461024657806359bf5d391461027657806370a08231146102a157610109565b806306fdde031461010e578063095ea7b31461013957806318160ddd1461017657806323b872dd146101a1575b600080fd5b34801561011a57600080fd5b506101236104ab565b6040516101309190611be5565b60405180910390f35b34801561014557600080fd5b50610160600480360381019061015b9190611ca0565b61053d565b60405161016d9190611cfb565b60405180910390f35b34801561018257600080fd5b5061018b610560565b6040516101989190611d25565b60405180910390f35b3480156101ad57600080fd5b506101c860048036038101906101c39190611d40565b61056a565b6040516101d59190611cfb565b60405180910390f35b3480156101ea57600080fd5b506101f3610599565b6040516102009190611daf565b60405180910390f35b34801561021557600080fd5b50610230600480360381019061022b9190611ca0565b6105a2565b60405161023d9190611cfb565b60405180910390f35b610260600480360381019061025b9190611dca565b6105d9565b60405161026d9190611d25565b60405180910390f35b34801561028257600080fd5b5061028b6108e6565b6040516102989190611d25565b60405180910390f35b3480156102ad57600080fd5b506102c860048036038101906102c39190611df7565b610989565b6040516102d59190611d25565b60405180910390f35b3480156102ea57600080fd5b5061030560048036038101906103009190611e24565b6109d1565b6040516103129190611d25565b60405180910390f35b61033560048036038101906103309190611dca565b610a76565b005b34801561034357600080fd5b5061034c610c1c565b6040516103599190611be5565b60405180910390f35b34801561036e57600080fd5b50610377610cae565b6040516103849190611e86565b60405180910390f35b34801561039957600080fd5b506103b460048036038101906103af9190611dca565b610cd4565b6040516103c2929190611ea1565b60405180910390f35b3480156103d757600080fd5b506103f260048036038101906103ed9190611ca0565b610f06565b6040516103ff9190611cfb565b60405180910390f35b34801561041457600080fd5b5061042f600480360381019061042a9190611ca0565b610f7d565b60405161043c9190611cfb565b60405180910390f35b34801561045157600080fd5b5061046c60048036038101906104679190611eca565b610fa0565b005b34801561047a57600080fd5b5061049560048036038101906104909190611f0a565b61117c565b6040516104a29190611d25565b60405180910390f35b6060600380546104ba90611f79565b80601f01602080910402602001604051908101604052809291908181526020018280546104e690611f79565b80156105335780601f1061050857610100808354040283529160200191610533565b820191906000526020600020905b81548152906001019060200180831161051657829003601f168201915b5050505050905090565b600080610548611203565b905061055581858561120b565b600191505092915050565b6000600254905090565b600080610575611203565b90506105828582856113d4565b61058d858585611460565b60019150509392505050565b60006012905090565b6000806105ad611203565b90506105ce8185856105bf858961117c565b6105c99190611fd9565b61120b565b600191505092915050565b600080600047905060006105eb6108e6565b90506000600560009054906101000a900473ffffffffffffffffffffffffffffffffffffffff169050600082036106ed578073ffffffffffffffffffffffffffffffffffffffff166323b872dd3330896040518463ffffffff1660e01b81526004016106599392919061200d565b6020604051808303816000875af1158015610678573d6000803e3d6000fd5b505050506040513d601f19601f8201168201806040525081019061069c9190612070565b6106db576040517f08c379a00000000000000000000000000000000000000000000000000000000081526004016106d2906120e9565b60405180910390fd5b8293506106e833856116d6565b61088a565b600034846106fb9190612109565b9050600081843461070c919061213d565b61071691906121ae565b90508088101561075b576040517f08c379a000000000000000000000000000000000000000000000000000000000815260040161075290612251565b60405180910390fd5b8273ffffffffffffffffffffffffffffffffffffffff166323b872dd3330846040518463ffffffff1660e01b81526004016107989392919061200d565b6020604051808303816000875af11580156107b7573d6000803e3d6000fd5b505050506040513d601f19601f820116820180604052508101906107db9190612070565b61081a576040517f08c379a0000000000000000000000000000000000000000000000000000000008152600401610811906120e9565b60405180910390fd5b81610823610560565b3461082e919061213d565b61083891906121ae565b95506000861161087d576040517f08c379a0000000000000000000000000000000000000000000000000000000008152600401610874906122bd565b60405180910390fd5b61088733876116d6565b50505b3373ffffffffffffffffffffffffffffffffffffffff167fac1d76749e5447b7b16f5ab61447e1bd502f3bb4807af3b28e620d1700a6ee4587866040516108d2929190611ea1565b60405180910390a283945050505050919050565b6000600560009054906101000a900473ffffffffffffffffffffffffffffffffffffffff1673ffffffffffffffffffffffffffffffffffffffff166370a08231306040518263ffffffff1660e01b81526004016109439190611e86565b602060405180830381865afa158015610960573d6000803e3d6000fd5b505050506040513d601f19601f8201168201806040525081019061098491906122f2565b905090565b60008060008373ffffffffffffffffffffffffffffffffffffffff1673ffffffffffffffffffffffffffffffffffffffff168152602001908152602001600020549050919050565b600080831180156109e25750600082115b610a21576040517f08c379a0000000000000000000000000000000000000000000000000000000008152600401610a189061236b565b60405180910390fd5b6000606385610a30919061213d565b905060008382610a40919061213d565b9050600082606487610a52919061213d565b610a5c9190611fd9565b90508082610a6a91906121ae565b93505050509392505050565b6000610a806108e6565b90506000610a9a343447610a949190612109565b846109d1565b905082811015610adf576040517f08c379a0000000000000000000000000000000000000000000000000000000008152600401610ad6906123d7565b60405180910390fd5b600560009054906101000a900473ffffffffffffffffffffffffffffffffffffffff1673ffffffffffffffffffffffffffffffffffffffff1663a9059cbb33836040518363ffffffff1660e01b8152600401610b3c9291906123f7565b6020604051808303816000875af1158015610b5b573d6000803e3d6000fd5b505050506040513d601f19601f82011682018060405250810190610b7f9190612070565b50610b8861182c565b610bc7576040517f08c379a0000000000000000000000000000000000000000000000000000000008152600401610bbe906120e9565b60405180910390fd5b3373ffffffffffffffffffffffffffffffffffffffff167f8fafebcaf9d154343dad25669bfa277f4fbacd7ac6b0c4fed522580e040a0f333483604051610c0f929190611ea1565b60405180910390a2505050565b606060048054610c2b90611f79565b80601f0160208091040260200160405190810160405280929190818152602001828054610c5790611f79565b8015610ca45780601f10610c7957610100808354040283529160200191610ca4565b820191906000526020600020905b815481529060010190602001808311610c8757829003601f168201915b5050505050905090565b600560009054906101000a900473ffffffffffffffffffffffffffffffffffffffff1681565b60008060008311610d1a576040517f08c379a0000000000000000000000000000000000000000000000000000000008152600401610d1190612492565b60405180910390fd5b82610d2433610989565b1015610d65576040517f08c379a0000000000000000000000000000000000000000000000000000000008152600401610d5c906124fe565b60405180910390fd5b60004790506000610d74610560565b90506000818684610d85919061213d565b610d8f91906121ae565b905060008287610d9d6108e6565b610da7919061213d565b610db191906121ae565b9050610dbd338861197e565b3373ffffffffffffffffffffffffffffffffffffffff166108fc839081150290604051600060405180830381858888f19350505050158015610e03573d6000803e3d6000fd5b50600560009054906101000a900473ffffffffffffffffffffffffffffffffffffffff1673ffffffffffffffffffffffffffffffffffffffff1663a9059cbb33836040518363ffffffff1660e01b8152600401610e619291906123f7565b6020604051808303816000875af1158015610e80573d6000803e3d6000fd5b505050506040513d601f19601f82011682018060405250810190610ea49190612070565b503373ffffffffffffffffffffffffffffffffffffffff167f1dc8bb69df2b8e91fbdcbfcf93d951b3f0000f085a95fe3f7946d6161439245d888484604051610eef9392919061251e565b60405180910390a281819550955050505050915091565b600080610f11611203565b90506000610f1f828661117c565b905083811015610f64576040517f08c379a0000000000000000000000000000000000000000000000000000000008152600401610f5b906125c7565b60405180910390fd5b610f71828686840361120b565b60019250505092915050565b600080610f88611203565b9050610f95818585611460565b600191505092915050565b6000610faa6108e6565b90506000610fb98483476109d1565b905082811015610ffe576040517f08c379a0000000000000000000000000000000000000000000000000000000008152600401610ff5906123d7565b60405180910390fd5b600560009054906101000a900473ffffffffffffffffffffffffffffffffffffffff1673ffffffffffffffffffffffffffffffffffffffff166323b872dd3330876040518463ffffffff1660e01b815260040161105d9392919061200d565b6020604051808303816000875af115801561107c573d6000803e3d6000fd5b505050506040513d601f19601f820116820180604052508101906110a09190612070565b6110df576040517f08c379a00000000000000000000000000000000000000000000000000000000081526004016110d6906120e9565b60405180910390fd5b3373ffffffffffffffffffffffffffffffffffffffff166108fc829081150290604051600060405180830381858888f19350505050158015611125573d6000803e3d6000fd5b503373ffffffffffffffffffffffffffffffffffffffff167f2dcf9433d75db0d8b1c172641f85e319ffe4ad22e108a95d1847ceb906e5195d858360405161116e929190611ea1565b60405180910390a250505050565b6000600160008473ffffffffffffffffffffffffffffffffffffffff1673ffffffffffffffffffffffffffffffffffffffff16815260200190815260200160002060008373ffffffffffffffffffffffffffffffffffffffff1673ffffffffffffffffffffffffffffffffffffffff16815260200190815260200160002054905092915050565b600033905090565b600073ffffffffffffffffffffffffffffffffffffffff168373ffffffffffffffffffffffffffffffffffffffff160361127a576040517f08c379a000000000000000000000000000000000000000000000000000000000815260040161127190612659565b60405180910390fd5b600073ffffffffffffffffffffffffffffffffffffffff168273ffffffffffffffffffffffffffffffffffffffff16036112e9576040517f08c379a00000000000000000000000000000000000000000000000000000000081526004016112e0906126eb565b60405180910390fd5b80600160008573ffffffffffffffffffffffffffffffffffffffff1673ffffffffffffffffffffffffffffffffffffffff16815260200190815260200160002060008473ffffffffffffffffffffffffffffffffffffffff1673ffffffffffffffffffffffffffffffffffffffff168152602001908152602001600020819055508173ffffffffffffffffffffffffffffffffffffffff168373ffffffffffffffffffffffffffffffffffffffff167f8c5be1e5ebec7d5bd14f71427d1e84f3dd0314c0f7b2291e5b200ac8c7c3b925836040516113c79190611d25565b60405180910390a3505050565b60006113e0848461117c565b90507fffffffffffffffffffffffffffffffffffffffffffffffffffffffffffffffff811461145a578181101561144c576040517f08c379a000000000000000000000000000000000000000000000000000000000815260040161144390612757565b60405180910390fd5b611459848484840361120b565b5b50505050565b600073ffffffffffffffffffffffffffffffffffffffff168373ffffffffffffffffffffffffffffffffffffffff16036114cf576040517f08c379a00000000000000000000000000000000000000000000000000000000081526004016114c6906127e9565b60405180910390fd5b600073ffffffffffffffffffffffffffffffffffffffff168273ffffffffffffffffffffffffffffffffffffffff160361153e576040517f08c379a00000000000000000000000000000000000000000000000000000000081526004016115359061287b565b60405180910390fd5b611549838383611b4b565b60008060008573ffffffffffffffffffffffffffffffffffffffff1673ffffffffffffffffffffffffffffffffffffffff168152602001908152602001600020549050818110156115cf576040517f08c379a00000000000000000000000000000000000000000000000000000000081526004016115c69061290d565b60405180910390fd5b8181036000808673ffffffffffffffffffffffffffffffffffffffff1673ffffffffffffffffffffffffffffffffffffffff16815260200190815260200160002081905550816000808573ffffffffffffffffffffffffffffffffffffffff1673ffffffffffffffffffffffffffffffffffffffff168152602001908152602001600020600082825401925050819055508273ffffffffffffffffffffffffffffffffffffffff168473ffffffffffffffffffffffffffffffffffffffff167fddf252ad1be2c89b69c2b068fc378daa952ba7f163c4a11628f55a4df523b3ef846040516116bd9190611d25565b60405180910390a36116d0848484611b50565b50505050565b600073ffffffffffffffffffffffffffffffffffffffff168273ffffffffffffffffffffffffffffffffffffffff1603611745576040517f08c379a000000000000000000000000000000000000000000000000000000000815260040161173c90612979565b60405180910390fd5b61175160008383611b4b565b80600260008282546117639190611fd9565b92505081905550806000808473ffffffffffffffffffffffffffffffffffffffff1673ffffffffffffffffffffffffffffffffffffffff168152602001908152602001600020600082825401925050819055508173ffffffffffffffffffffffffffffffffffffffff16600073ffffffffffffffffffffffffffffffffffffffff167fddf252ad1be2c89b69c2b068fc378daa952ba7f163c4a11628f55a4df523b3ef836040516118149190611d25565b60405180910390a361182860008383611b50565b5050565b600080600560009054906101000a900473ffffffffffffffffffffffffffffffffffffffff1673ffffffffffffffffffffffffffffffffffffffff166370a08231306040518263ffffffff1660e01b815260040161188a9190611e86565b602060405180830381865afa1580156118a7573d6000803e3d6000fd5b505050506040513d601f19601f820116820180604052508101906118cb91906122f2565b905060008114806119785750600560009054906101000a900473ffffffffffffffffffffffffffffffffffffffff1673ffffffffffffffffffffffffffffffffffffffff1663a9059cbb30836040518363ffffffff1660e01b81526004016119349291906123f7565b6020604051808303816000875af1158015611953573d6000803e3d6000fd5b505050506040513d601f19601f820116820180604052508101906119779190612070565b5b91505090565b600073ffffffffffffffffffffffffffffffffffffffff168273ffffffffffffffffffffffffffffffffffffffff16036119ed576040517f08c379a00000000000000000000000000000000000000000000000000000000081526004016119e490612a0b565b60405180910390fd5b6119f982600083611b4b565b60008060008473ffffffffffffffffffffffffffffffffffffffff1673ffffffffffffffffffffffffffffffffffffffff16815260200190815260200160002054905081811015611a7f576040517f08c379a0000000000000000000000000000000000000000000000000000000008152600401611a7690612a9d565b60405180910390fd5b8181036000808573ffffffffffffffffffffffffffffffffffffffff1673ffffffffffffffffffffffffffffffffffffffff1681526020019081526020016000208190555081600260008282540392505081905550600073ffffffffffffffffffffffffffffffffffffffff168373ffffffffffffffffffffffffffffffffffffffff167fddf252ad1be2c89b69c2b068fc378daa952ba7f163c4a11628f55a4df523b3ef84604051611b329190611d25565b60405180910390a3611b4683600084611b50565b505050565b505050565b505050565b600081519050919050565b600082825260208201905092915050565b60005b83811015611b8f578082015181840152602081019050611b74565b60008484015250505050565b6000601f19601f8301169050919050565b6000611bb782611b55565b611bc18185611b60565b9350611bd1818560208601611b71565b611bda81611b9b565b840191505092915050565b60006020820190508181036000830152611bff8184611bac565b905092915050565b600080fd5b600073ffffffffffffffffffffffffffffffffffffffff82169050919050565b6000611c3782611c0c565b9050919050565b611c4781611c2c565b8114611c5257600080fd5b50565b600081359050611c6481611c3e565b92915050565b6000819050919050565b611c7d81611c6a565b8114611c8857600080fd5b50565b600081359050611c9a81611c74565b92915050565b60008060408385031215611cb757611cb6611c07565b5b6000611cc585828601611c55565b9250506020611cd685828601611c8b565b9150509250929050565b60008115159050919050565b611cf581611ce0565b82525050565b6000602082019050611d106000830184611cec565b92915050565b611d1f81611c6a565b82525050565b6000602082019050611d3a6000830184611d16565b92915050565b600080600060608486031215611d5957611d58611c07565b5b6000611d6786828701611c55565b9350506020611d7886828701611c55565b9250506040611d8986828701611c8b565b9150509250925092565b600060ff82169050919050565b611da981611d93565b82525050565b6000602082019050611dc46000830184611da0565b92915050565b600060208284031215611de057611ddf611c07565b5b6000611dee84828501611c8b565b91505092915050565b600060208284031215611e0d57611e0c611c07565b5b6000611e1b84828501611c55565b91505092915050565b600080600060608486031215611e3d57611e3c611c07565b5b6000611e4b86828701611c8b565b9350506020611e5c86828701611c8b565b9250506040611e6d86828701611c8b565b9150509250925092565b611e8081611c2c565b82525050565b6000602082019050611e9b6000830184611e77565b92915050565b6000604082019050611eb66000830185611d16565b611ec36020830184611d16565b9392505050565b60008060408385031215611ee157611ee0611c07565b5b6000611eef85828601611c8b565b9250506020611f0085828601611c8b565b9150509250929050565b60008060408385031215611f2157611f20611c07565b5b6000611f2f85828601611c55565b9250506020611f4085828601611c55565b9150509250929050565b7f4e487b7100000000000000000000000000000000000000000000000000000000600052602260045260246000fd5b60006002820490506001821680611f9157607f821691505b602082108103611fa457611fa3611f4a565b5b50919050565b7f4e487b7100000000000000000000000000000000000000000000000000000000600052601160045260246000fd5b6000611fe482611c6a565b9150611fef83611c6a565b925082820190508082111561200757612006611faa565b5b92915050565b60006060820190506120226000830186611e77565b61202f6020830185611e77565b61203c6040830184611d16565b949350505050565b61204d81611ce0565b811461205857600080fd5b50565b60008151905061206a81612044565b92915050565b60006020828403121561208657612085611c07565b5b60006120948482850161205b565b91505092915050565b7f546f6b656e207472616e73666572206661696c65640000000000000000000000600082015250565b60006120d3601583611b60565b91506120de8261209d565b602082019050919050565b60006020820190508181036000830152612102816120c6565b9050919050565b600061211482611c6a565b915061211f83611c6a565b925082820390508181111561213757612136611faa565b5b92915050565b600061214882611c6a565b915061215383611c6a565b925082820261216181611c6a565b9150828204841483151761217857612177611faa565b5b5092915050565b7f4e487b7100000000000000000000000000000000000000000000000000000000600052601260045260246000fd5b60006121b982611c6a565b91506121c483611c6a565b9250826121d4576121d361217f565b5b828204905092915050565b7f416d6f756e74206f6620746f6b656e732073656e74206973206c65737320746860008201527f616e20746865206d696e696d756d20746f6b656e732072657175697265640000602082015250565b600061223b603e83611b60565b9150612246826121df565b604082019050919050565b6000602082019050818103600083015261226a8161222e565b9050919050565b7f4c697175696469747920616d6f756e74206973207a65726f0000000000000000600082015250565b60006122a7601883611b60565b91506122b282612271565b602082019050919050565b600060208201905081810360008301526122d68161229a565b9050919050565b6000815190506122ec81611c74565b92915050565b60006020828403121561230857612307611c07565b5b6000612316848285016122dd565b91505092915050565b7f496e76616c696420726573657276657300000000000000000000000000000000600082015250565b6000612355601083611b60565b91506123608261231f565b602082019050919050565b6000602082019050818103600083015261238481612348565b9050919050565b7f496e73756666696369656e74206f757470757420616d6f756e74000000000000600082015250565b60006123c1601a83611b60565b91506123cc8261238b565b602082019050919050565b600060208201905081810360008301526123f0816123b4565b9050919050565b600060408201905061240c6000830185611e77565b6124196020830184611d16565b9392505050565b7f4c5020616d6f756e74206d7573742062652067726561746572207468616e207a60008201527f65726f0000000000000000000000000000000000000000000000000000000000602082015250565b600061247c602383611b60565b915061248782612420565b604082019050919050565b600060208201905081810360008301526124ab8161246f565b9050919050565b7f496e73756666696369656e74204c5020746f6b656e7320746f206275726e0000600082015250565b60006124e8601e83611b60565b91506124f3826124b2565b602082019050919050565b60006020820190508181036000830152612517816124db565b9050919050565b60006060820190506125336000830186611d16565b6125406020830185611d16565b61254d6040830184611d16565b949350505050565b7f45524332303a2064656372656173656420616c6c6f77616e63652062656c6f7760008201527f207a65726f000000000000000000000000000000000000000000000000000000602082015250565b60006125b1602583611b60565b91506125bc82612555565b604082019050919050565b600060208201905081810360008301526125e0816125a4565b9050919050565b7f45524332303a20617070726f76652066726f6d20746865207a65726f2061646460008201527f7265737300000000000000000000000000000000000000000000000000000000602082015250565b6000612643602483611b60565b915061264e826125e7565b604082019050919050565b6000602082019050818103600083015261267281612636565b9050919050565b7f45524332303a20617070726f766520746f20746865207a65726f20616464726560008201527f7373000000000000000000000000000000000000000000000000000000000000602082015250565b60006126d5602283611b60565b91506126e082612679565b604082019050919050565b60006020820190508181036000830152612704816126c8565b9050919050565b7f45524332303a20696e73756666696369656e7420616c6c6f77616e6365000000600082015250565b6000612741601d83611b60565b915061274c8261270b565b602082019050919050565b6000602082019050818103600083015261277081612734565b9050919050565b7f45524332303a207472616e736665722066726f6d20746865207a65726f20616460008201527f6472657373000000000000000000000000000000000000000000000000000000602082015250565b60006127d3602583611b60565b91506127de82612777565b604082019050919050565b60006020820190508181036000830152612802816127c6565b9050919050565b7f45524332303a207472616e7366657220746f20746865207a65726f206164647260008201527f6573730000000000000000000000000000000000000000000000000000000000602082015250565b6000612865602383611b60565b915061287082612809565b604082019050919050565b6000602082019050818103600083015261289481612858565b9050919050565b7f45524332303a207472616e7366657220616d6f756e742065786365656473206260008201527f616c616e63650000000000000000000000000000000000000000000000000000602082015250565b60006128f7602683611b60565b91506129028261289b565b604082019050919050565b60006020820190508181036000830152612926816128ea565b9050919050565b7f45524332303a206d696e7420746f20746865207a65726f206164647265737300600082015250565b6000612963601f83611b60565b915061296e8261292d565b602082019050919050565b6000602082019050818103600083015261299281612956565b9050919050565b7f45524332303a206275726e2066726f6d20746865207a65726f2061646472657360008201527f7300000000000000000000000000000000000000000000000000000000000000602082015250565b60006129f5602183611b60565b9150612a0082612999565b604082019050919050565b60006020820190508181036000830152612a24816129e8565b9050919050565b7f45524332303a206275726e20616d6f756e7420657863656564732062616c616e60008201527f6365000000000000000000000000000000000000000000000000000000000000602082015250565b6000612a87602283611b60565b9150612a9282612a2b565b604082019050919050565b60006020820190508181036000830152612ab681612a7a565b905091905056fea26469706673582212206ca5a2500784d327a557ba6e9db114c5b4323b442bd930105eb0fd9d2dee5dbe64736f6c63430008110033",
  "linkReferences": {},
  "deployedLinkReferences": {}
}