{
  "_format": "hh-sol-artifact-1",
  "contractName": "OlameToken",
  "sourceName": "contracts/Token.sol",
  "abi": [
    {
      "inputs": [],
      "stateMutability": "nonpayable",
      "type": "constructor"
    },
    {
      "anonymous": false,
      "inputs": [
        {
          "indexed": true,
          "internalType": "address",
          "name": "owner",
          "type": "address"
        },
        {
          "indexed": true,
          "internalType": "address",
          "name": "spender",
          "type": "address"
        },
        {
          "indexed": false,
          "internalType": "uint256",
          "name": "value",
          "type": "uint256"
        }
      ],
      "name": "Approval",
      "type": "event"
    },
    {
      "anonymous": false,
      "inputs": [
        {
          "indexed": true,
          "internalType": "address",
          "name": "minter",
          "type": "address"
        },
        {
          "indexed": false,
          "internalType": "uint256",
          "name": "amount",
          "type": "uint256"
        }
      ],
      "name": "Faucet",
      "type": "event"
    },
    {
      "anonymous": false,
      "inputs": [
        {
          "indexed": true,
          "internalType": "address",
          "name": "from",
          "type": "address"
        },
        {
          "indexed": true,
          "internalType": "address",
          "name": "to",
          "type": "address"
        },
        {
          "indexed": false,
          "internalType": "uint256",
          "name": "value",
          "type": "uint256"
        }
      ],
      "name": "Transfer",
      "type": "event"
    },
    {
      "inputs": [],
      "name": "DEFAULT_MINT_AMOUNT",
      "outputs": [
        {
          "internalType": "uint256",
          "name": "",
          "type": "uint256"
        }
      ],
      "stateMutability": "view",
      "type": "function"
    },
    {
      "inputs": [
        {
          "internalType": "address",
          "name": "owner",
          "type": "address"
        },
        {
          "internalType": "address",
          "name": "spender",
          "type": "address"
        }
      ],
      "name": "allowance",
      "outputs": [
        {
          "internalType": "uint256",
          "name": "",
          "type": "uint256"
        }
      ],
      "stateMutability": "view",
      "type": "function"
    },
    {
      "inputs": [
        {
          "internalType": "address",
          "name": "spender",
          "type": "address"
        },
        {
          "internalType": "uint256",
          "name": "amount",
          "type": "uint256"
        }
      ],
      "name": "approve",
      "outputs": [
        {
          "internalType": "bool",
          "name": "",
          "type": "bool"
        }
      ],
      "stateMutability": "nonpayable",
      "type": "function"
    },
    {
      "inputs": [
        {
          "internalType": "address",
          "name": "account",
          "type": "address"
        }
      ],
      "name": "balanceOf",
      "outputs": [
        {
          "internalType": "uint256",
          "name": "",
          "type": "uint256"
        }
      ],
      "stateMutability": "view",
      "type": "function"
    },
    {
      "inputs": [],
      "name": "decimals",
      "outputs": [
        {
          "internalType": "uint8",
          "name": "",
          "type": "uint8"
        }
      ],
      "stateMutability": "view",
      "type": "function"
    },
    {
      "inputs": [
        {
          "internalType": "address",
          "name": "spender",
          "type": "address"
        },
        {
          "internalType": "uint256",
          "name": "subtractedValue",
          "type": "uint256"
        }
      ],
      "name": "decreaseAllowance",
      "outputs": [
        {
          "internalType": "bool",
          "name": "",
          "type": "bool"
        }
      ],
      "stateMutability": "nonpayable",
      "type": "function"
    },
    {
      "inputs": [],
      "name": "faucet",
      "outputs": [],
      "stateMutability": "nonpayable",
      "type": "function"
    },
    {
      "inputs": [
        {
          "internalType": "address",
          "name": "spender",
          "type": "address"
        },
        {
          "internalType": "uint256",
          "name": "addedValue",
          "type": "uint256"
        }
      ],
      "name": "increaseAllowance",
      "outputs": [
        {
          "internalType": "bool",
          "name": "",
          "type": "bool"
        }
      ],
      "stateMutability": "nonpayable",
      "type": "function"
    },
    {
      "inputs": [],
      "name": "name",
      "outputs": [
        {
          "internalType": "string",
          "name": "",
          "type": "string"
        }
      ],
      "stateMutability": "view",
      "type": "function"
    },
    {
      "inputs": [],
      "name": "symbol",
      "outputs": [
        {
          "internalType": "string",
          "name": "",
          "type": "string"
        }
      ],
      "stateMutability": "view",
      "type": "function"
    },
    {
      "inputs": [],
      "name": "totalSupply",
      "outputs": [
        {
          "internalType": "uint256",
          "name": "",
          "type": "uint256"
        }
      ],
      "stateMutability": "view",
      "type": "function"
    },
    {
      "inputs": [
        {
          "internalType": "address",
          "name": "to",
          "type": "address"
        },
        {
          "internalType": "uint256",
          "name": "amount",
          "type": "uint256"
        }
      ],
      "name": "transfer",
      "outputs": [
        {
          "internalType": "bool",
          "name": "",
          "type": "bool"
        }
      ],
      "stateMutability": "nonpayable",
      "type": "function"
    },
    {
      "inputs": [
        {
          "internalType": "address",
          "name": "from",
          "type": "address"
        },
        {
          "internalType": "address",
          "name": "to",
          "type": "address"
        },
        {
          "internalType": "uint256",
          "name": "amount",
          "type": "uint256"
        }
      ],
      "name": "transferFrom",
      "outputs": [
        {
          "internalType": "bool",
          "name": "",
          "type": "bool"
        }
      ],
      "stateMutability": "nonpayable",
      "type": "function"
    }
  ],
  "bytecode": "0x60806040526103e86005553480156200001757600080fd5b506040518060400160405280600b81526020017f4f6c616d6520546f6b656e0000000000000000000000000000000000000000008152506040518060400160405280600381526020017f4f4c41000000000000000000000000000000000000000000000000000000000081525081600390816200009591906200032a565b508060049081620000a791906200032a565b50505062000411565b600081519050919050565b7f4e487b7100000000000000000000000000000000000000000000000000000000600052604160045260246000fd5b7f4e487b7100000000000000000000000000000000000000000000000000000000600052602260045260246000fd5b600060028204905060018216806200013257607f821691505b602082108103620001485762000147620000ea565b5b50919050565b60008190508160005260206000209050919050565b60006020601f8301049050919050565b600082821b905092915050565b600060088302620001b27fffffffffffffffffffffffffffffffffffffffffffffffffffffffffffffffff8262000173565b620001be868362000173565b95508019841693508086168417925050509392505050565b6000819050919050565b6000819050919050565b60006200020b62000205620001ff84620001d6565b620001e0565b620001d6565b9050919050565b6000819050919050565b6200022783620001ea565b6200023f620002368262000212565b84845462000180565b825550505050565b600090565b6200025662000247565b620002638184846200021c565b505050565b5b818110156200028b576200027f6000826200024c565b60018101905062000269565b5050565b601f821115620002da57620002a4816200014e565b620002af8462000163565b81016020851015620002bf578190505b620002d7620002ce8562000163565b83018262000268565b50505b505050565b600082821c905092915050565b6000620002ff60001984600802620002df565b1980831691505092915050565b60006200031a8383620002ec565b9150826002028217905092915050565b6200033582620000b0565b67ffffffffffffffff811115620003515762000350620000bb565b5b6200035d825462000119565b6200036a8282856200028f565b600060209050601f831160018114620003a257600084156200038d578287015190505b6200039985826200030c565b86555062000409565b601f198416620003b2866200014e565b60005b82811015620003dc57848901518255600182019150602085019450602081019050620003b5565b86831015620003fc5784890151620003f8601f891682620002ec565b8355505b6001600288020188555050505b505050505050565b61168780620004216000396000f3fe608060405234801561001057600080fd5b50600436106100cf5760003560e01c806370a082311161008c578063a9059cbb11610066578063a9059cbb1461023c578063ab466a8d1461026c578063dd62ed3e1461028a578063de5f72fd146102ba576100cf565b806370a08231146101be57806395d89b41146101ee578063a457c2d71461020c576100cf565b806306fdde03146100d4578063095ea7b3146100f257806318160ddd1461012257806323b872dd14610140578063313ce56714610170578063395093511461018e575b600080fd5b6100dc6102c4565b6040516100e99190610d38565b60405180910390f35b61010c60048036038101906101079190610df3565b610356565b6040516101199190610e4e565b60405180910390f35b61012a610379565b6040516101379190610e78565b60405180910390f35b61015a60048036038101906101559190610e93565b610383565b6040516101679190610e4e565b60405180910390f35b6101786103b2565b6040516101859190610f02565b60405180910390f35b6101a860048036038101906101a39190610df3565b6103bb565b6040516101b59190610e4e565b60405180910390f35b6101d860048036038101906101d39190610f1d565b6103f2565b6040516101e59190610e78565b60405180910390f35b6101f661043a565b6040516102039190610d38565b60405180910390f35b61022660048036038101906102219190610df3565b6104cc565b6040516102339190610e4e565b60405180910390f35b61025660048036038101906102519190610df3565b610543565b6040516102639190610e4e565b60405180910390f35b610274610566565b6040516102819190610e78565b60405180910390f35b6102a4600480360381019061029f9190610f4a565b61056c565b6040516102b19190610e78565b60405180910390f35b6102c26105f3565b005b6060600380546102d390610fb9565b80601f01602080910402602001604051908101604052809291908181526020018280546102ff90610fb9565b801561034c5780601f106103215761010080835404028352916020019161034c565b820191906000526020600020905b81548152906001019060200180831161032f57829003601f168201915b5050505050905090565b600080610361610675565b905061036e81858561067d565b600191505092915050565b6000600254905090565b60008061038e610675565b905061039b858285610846565b6103a68585856108d2565b60019150509392505050565b60006012905090565b6000806103c6610675565b90506103e78185856103d8858961056c565b6103e29190611019565b61067d565b600191505092915050565b60008060008373ffffffffffffffffffffffffffffffffffffffff1673ffffffffffffffffffffffffffffffffffffffff168152602001908152602001600020549050919050565b60606004805461044990610fb9565b80601f016020809104026020016040519081016040528092919081815260200182805461047590610fb9565b80156104c25780601f10610497576101008083540402835291602001916104c2565b820191906000526020600020905b8154815290600101906020018083116104a557829003601f168201915b5050505050905090565b6000806104d7610675565b905060006104e5828661056c565b90508381101561052a576040517f08c379a0000000000000000000000000000000000000000000000000000000008152600401610521906110bf565b60405180910390fd5b610537828686840361067d565b60019250505092915050565b60008061054e610675565b905061055b8185856108d2565b600191505092915050565b60055481565b6000600160008473ffffffffffffffffffffffffffffffffffffffff1673ffffffffffffffffffffffffffffffffffffffff16815260200190815260200160002060008373ffffffffffffffffffffffffffffffffffffffff1673ffffffffffffffffffffffffffffffffffffffff16815260200190815260200160002054905092915050565b60006105fd6103b2565b600a6106099190611212565b600554610616919061125d565b90506106223382610b48565b3373ffffffffffffffffffffffffffffffffffffffff167f1c5347d1e37925b93058518c26d7daabe45f0a3227e8d058aaf3682960eb2b9460055460405161066a9190610e78565b60405180910390a250565b600033905090565b600073ffffffffffffffffffffffffffffffffffffffff168373ffffffffffffffffffffffffffffffffffffffff16036106ec576040517f08c379a00000000000000000000000000000000000000000000000000000000081526004016106e390611311565b60405180910390fd5b600073ffffffffffffffffffffffffffffffffffffffff168273ffffffffffffffffffffffffffffffffffffffff160361075b576040517f08c379a0000000000000000000000000000000000000000000000000000000008152600401610752906113a3565b60405180910390fd5b80600160008573ffffffffffffffffffffffffffffffffffffffff1673ffffffffffffffffffffffffffffffffffffffff16815260200190815260200160002060008473ffffffffffffffffffffffffffffffffffffffff1673ffffffffffffffffffffffffffffffffffffffff168152602001908152602001600020819055508173ffffffffffffffffffffffffffffffffffffffff168373ffffffffffffffffffffffffffffffffffffffff167f8c5be1e5ebec7d5bd14f71427d1e84f3dd0314c0f7b2291e5b200ac8c7c3b925836040516108399190610e78565b60405180910390a3505050565b6000610852848461056c565b90507fffffffffffffffffffffffffffffffffffffffffffffffffffffffffffffffff81146108cc57818110156108be576040517f08c379a00000000000000000000000000000000000000000000000000000000081526004016108b59061140f565b60405180910390fd5b6108cb848484840361067d565b5b50505050565b600073ffffffffffffffffffffffffffffffffffffffff168373ffffffffffffffffffffffffffffffffffffffff1603610941576040517f08c379a0000000000000000000000000000000000000000000000000000000008152600401610938906114a1565b60405180910390fd5b600073ffffffffffffffffffffffffffffffffffffffff168273ffffffffffffffffffffffffffffffffffffffff16036109b0576040517f08c379a00000000000000000000000000000000000000000000000000000000081526004016109a790611533565b60405180910390fd5b6109bb838383610c9e565b60008060008573ffffffffffffffffffffffffffffffffffffffff1673ffffffffffffffffffffffffffffffffffffffff16815260200190815260200160002054905081811015610a41576040517f08c379a0000000000000000000000000000000000000000000000000000000008152600401610a38906115c5565b60405180910390fd5b8181036000808673ffffffffffffffffffffffffffffffffffffffff1673ffffffffffffffffffffffffffffffffffffffff16815260200190815260200160002081905550816000808573ffffffffffffffffffffffffffffffffffffffff1673ffffffffffffffffffffffffffffffffffffffff168152602001908152602001600020600082825401925050819055508273ffffffffffffffffffffffffffffffffffffffff168473ffffffffffffffffffffffffffffffffffffffff167fddf252ad1be2c89b69c2b068fc378daa952ba7f163c4a11628f55a4df523b3ef84604051610b2f9190610e78565b60405180910390a3610b42848484610ca3565b50505050565b600073ffffffffffffffffffffffffffffffffffffffff168273ffffffffffffffffffffffffffffffffffffffff1603610bb7576040517f08c379a0000000000000000000000000000000000000000000000000000000008152600401610bae90611631565b60405180910390fd5b610bc360008383610c9e565b8060026000828254610bd59190611019565b92505081905550806000808473ffffffffffffffffffffffffffffffffffffffff1673ffffffffffffffffffffffffffffffffffffffff168152602001908152602001600020600082825401925050819055508173ffffffffffffffffffffffffffffffffffffffff16600073ffffffffffffffffffffffffffffffffffffffff167fddf252ad1be2c89b69c2b068fc378daa952ba7f163c4a11628f55a4df523b3ef83604051610c869190610e78565b60405180910390a3610c9a60008383610ca3565b5050565b505050565b505050565b600081519050919050565b600082825260208201905092915050565b60005b83811015610ce2578082015181840152602081019050610cc7565b60008484015250505050565b6000601f19601f8301169050919050565b6000610d0a82610ca8565b610d148185610cb3565b9350610d24818560208601610cc4565b610d2d81610cee565b840191505092915050565b60006020820190508181036000830152610d528184610cff565b905092915050565b600080fd5b600073ffffffffffffffffffffffffffffffffffffffff82169050919050565b6000610d8a82610d5f565b9050919050565b610d9a81610d7f565b8114610da557600080fd5b50565b600081359050610db781610d91565b92915050565b6000819050919050565b610dd081610dbd565b8114610ddb57600080fd5b50565b600081359050610ded81610dc7565b92915050565b60008060408385031215610e0a57610e09610d5a565b5b6000610e1885828601610da8565b9250506020610e2985828601610dde565b9150509250929050565b60008115159050919050565b610e4881610e33565b82525050565b6000602082019050610e636000830184610e3f565b92915050565b610e7281610dbd565b82525050565b6000602082019050610e8d6000830184610e69565b92915050565b600080600060608486031215610eac57610eab610d5a565b5b6000610eba86828701610da8565b9350506020610ecb86828701610da8565b9250506040610edc86828701610dde565b9150509250925092565b600060ff82169050919050565b610efc81610ee6565b82525050565b6000602082019050610f176000830184610ef3565b92915050565b600060208284031215610f3357610f32610d5a565b5b6000610f4184828501610da8565b91505092915050565b60008060408385031215610f6157610f60610d5a565b5b6000610f6f85828601610da8565b9250506020610f8085828601610da8565b9150509250929050565b7f4e487b7100000000000000000000000000000000000000000000000000000000600052602260045260246000fd5b60006002820490506001821680610fd157607f821691505b602082108103610fe457610fe3610f8a565b5b50919050565b7f4e487b7100000000000000000000000000000000000000000000000000000000600052601160045260246000fd5b600061102482610dbd565b915061102f83610dbd565b925082820190508082111561104757611046610fea565b5b92915050565b7f45524332303a2064656372656173656420616c6c6f77616e63652062656c6f7760008201527f207a65726f000000000000000000000000000000000000000000000000000000602082015250565b60006110a9602583610cb3565b91506110b48261104d565b604082019050919050565b600060208201905081810360008301526110d88161109c565b9050919050565b60008160011c9050919050565b6000808291508390505b60018511156111365780860481111561111257611111610fea565b5b60018516156111215780820291505b808102905061112f856110df565b94506110f6565b94509492505050565b60008261114f576001905061120b565b8161115d576000905061120b565b8160018114611173576002811461117d576111ac565b600191505061120b565b60ff84111561118f5761118e610fea565b5b8360020a9150848211156111a6576111a5610fea565b5b5061120b565b5060208310610133831016604e8410600b84101617156111e15782820a9050838111156111dc576111db610fea565b5b61120b565b6111ee84848460016110ec565b9250905081840481111561120557611204610fea565b5b81810290505b9392505050565b600061121d82610dbd565b915061122883610ee6565b92506112557fffffffffffffffffffffffffffffffffffffffffffffffffffffffffffffffff848461113f565b905092915050565b600061126882610dbd565b915061127383610dbd565b925082820261128181610dbd565b9150828204841483151761129857611297610fea565b5b5092915050565b7f45524332303a20617070726f76652066726f6d20746865207a65726f2061646460008201527f7265737300000000000000000000000000000000000000000000000000000000602082015250565b60006112fb602483610cb3565b91506113068261129f565b604082019050919050565b6000602082019050818103600083015261132a816112ee565b9050919050565b7f45524332303a20617070726f766520746f20746865207a65726f20616464726560008201527f7373000000000000000000000000000000000000000000000000000000000000602082015250565b600061138d602283610cb3565b915061139882611331565b604082019050919050565b600060208201905081810360008301526113bc81611380565b9050919050565b7f45524332303a20696e73756666696369656e7420616c6c6f77616e6365000000600082015250565b60006113f9601d83610cb3565b9150611404826113c3565b602082019050919050565b60006020820190508181036000830152611428816113ec565b9050919050565b7f45524332303a207472616e736665722066726f6d20746865207a65726f20616460008201527f6472657373000000000000000000000000000000000000000000000000000000602082015250565b600061148b602583610cb3565b91506114968261142f565b604082019050919050565b600060208201905081810360008301526114ba8161147e565b9050919050565b7f45524332303a207472616e7366657220746f20746865207a65726f206164647260008201527f6573730000000000000000000000000000000000000000000000000000000000602082015250565b600061151d602383610cb3565b9150611528826114c1565b604082019050919050565b6000602082019050818103600083015261154c81611510565b9050919050565b7f45524332303a207472616e7366657220616d6f756e742065786365656473206260008201527f616c616e63650000000000000000000000000000000000000000000000000000602082015250565b60006115af602683610cb3565b91506115ba82611553565b604082019050919050565b600060208201905081810360008301526115de816115a2565b9050919050565b7f45524332303a206d696e7420746f20746865207a65726f206164647265737300600082015250565b600061161b601f83610cb3565b9150611626826115e5565b602082019050919050565b6000602082019050818103600083015261164a8161160e565b905091905056fea2646970667358221220862cb6a550b5e39fd462bb7b8f0ce888fb1f45767c9677e8d8f29de8fbacefce64736f6c63430008110033",
  "linkReferences": {},
  "deployedLinkReferences": {}
}